{
  "contractName": "DataHashing",
  "abi": [
    {
      "inputs": [
        {
          "internalType": "bytes32",
          "name": "",
          "type": "bytes32"
        }
      ],
      "name": "hashedData",
      "outputs": [
        {
          "internalType": "string",
          "name": "author",
          "type": "string"
        },
        {
          "internalType": "string",
          "name": "id",
          "type": "string"
        },
        {
          "internalType": "string",
          "name": "date",
          "type": "string"
        },
        {
          "internalType": "string",
          "name": "model",
          "type": "string"
        }
      ],
      "stateMutability": "view",
      "type": "function",
      "constant": true
    },
    {
      "inputs": [],
      "name": "gett",
      "outputs": [
        {
          "internalType": "uint8",
          "name": "",
          "type": "uint8"
        }
      ],
      "stateMutability": "view",
      "type": "function",
      "constant": true
    },
    {
      "inputs": [
        {
          "internalType": "string",
          "name": "_author",
          "type": "string"
        },
        {
          "internalType": "string",
          "name": "_id",
          "type": "string"
        },
        {
          "internalType": "string",
          "name": "_date",
          "type": "string"
        },
        {
          "internalType": "string",
          "name": "_model",
          "type": "string"
        }
      ],
      "name": "hashAndStoreData",
      "outputs": [
        {
          "internalType": "bytes32",
          "name": "",
          "type": "bytes32"
        }
      ],
      "stateMutability": "nonpayable",
      "type": "function"
    },
    {
      "inputs": [
        {
          "internalType": "bytes32",
          "name": "_hash",
          "type": "bytes32"
        }
      ],
      "name": "dehashData",
      "outputs": [
        {
          "internalType": "string",
          "name": "author",
          "type": "string"
        },
        {
          "internalType": "string",
          "name": "id",
          "type": "string"
        },
        {
          "internalType": "string",
          "name": "date",
          "type": "string"
        },
        {
          "internalType": "string",
          "name": "model",
          "type": "string"
        }
      ],
      "stateMutability": "view",
      "type": "function",
      "constant": true
    }
  ],
  "bytecode": "0x608060405260026000806101000a81548160ff021916908360ff16021790555034801561002b57600080fd5b50610c208061003b6000396000f3fe608060405234801561001057600080fd5b506004361061004c5760003560e01c8063670a70ad146100515780638e08685514610084578063c32a1f25146100a2578063e08541b8146100d5575b600080fd5b61006b60048036038101906100669190610808565b610105565b60405161007b94939291906109d5565b60405180910390f35b61008c610399565b6040516100999190610a36565b60405180910390f35b6100bc60048036038101906100b79190610808565b6103af565b6040516100cc94939291906109d5565b60405180910390f35b6100ef60048036038101906100ea9190610831565b6105ff565b6040516100fc91906109ba565b60405180910390f35b60608060608060006001600087815260200190815260200160002060405180608001604052908160008201805461013b90610b32565b80601f016020809104026020016040519081016040528092919081815260200182805461016790610b32565b80156101b45780601f10610189576101008083540402835291602001916101b4565b820191906000526020600020905b81548152906001019060200180831161019757829003601f168201915b505050505081526020016001820180546101cd90610b32565b80601f01602080910402602001604051908101604052809291908181526020018280546101f990610b32565b80156102465780601f1061021b57610100808354040283529160200191610246565b820191906000526020600020905b81548152906001019060200180831161022957829003601f168201915b5050505050815260200160028201805461025f90610b32565b80601f016020809104026020016040519081016040528092919081815260200182805461028b90610b32565b80156102d85780601f106102ad576101008083540402835291602001916102d8565b820191906000526020600020905b8154815290600101906020018083116102bb57829003601f168201915b505050505081526020016003820180546102f190610b32565b80601f016020809104026020016040519081016040528092919081815260200182805461031d90610b32565b801561036a5780601f1061033f5761010080835404028352916020019161036a565b820191906000526020600020905b81548152906001019060200180831161034d57829003601f168201915b505050505081525050905080600001518160200151826040015183606001519450945094509450509193509193565b60008060009054906101000a900460ff16905090565b60016020528060005260406000206000915090508060000180546103d290610b32565b80601f01602080910402602001604051908101604052809291908181526020018280546103fe90610b32565b801561044b5780601f106104205761010080835404028352916020019161044b565b820191906000526020600020905b81548152906001019060200180831161042e57829003601f168201915b50505050509080600101805461046090610b32565b80601f016020809104026020016040519081016040528092919081815260200182805461048c90610b32565b80156104d95780601f106104ae576101008083540402835291602001916104d9565b820191906000526020600020905b8154815290600101906020018083116104bc57829003601f168201915b5050505050908060020180546104ee90610b32565b80601f016020809104026020016040519081016040528092919081815260200182805461051a90610b32565b80156105675780601f1061053c57610100808354040283529160200191610567565b820191906000526020600020905b81548152906001019060200180831161054a57829003601f168201915b50505050509080600301805461057c90610b32565b80601f01602080910402602001604051908101604052809291908181526020018280546105a890610b32565b80156105f55780601f106105ca576101008083540402835291602001916105f5565b820191906000526020600020905b8154815290600101906020018083116105d857829003601f168201915b5050505050905084565b60008085858585604051602001610619949392919061097c565b6040516020818303038152906040528051906020012090506040518060800160405280878152602001868152602001858152602001848152506001600083815260200190815260200160002060008201518160000190805190602001906106819291906106e8565b50602082015181600101908051906020019061069e9291906106e8565b5060408201518160020190805190602001906106bb9291906106e8565b5060608201518160030190805190602001906106d89291906106e8565b5090505080915050949350505050565b8280546106f490610b32565b90600052602060002090601f016020900481019282610716576000855561075d565b82601f1061072f57805160ff191683800117855561075d565b8280016001018555821561075d579182015b8281111561075c578251825591602001919060010190610741565b5b50905061076a919061076e565b5090565b5b8082111561078757600081600090555060010161076f565b5090565b600061079e61079984610a82565b610a51565b9050828152602081018484840111156107b657600080fd5b6107c1848285610af0565b509392505050565b6000813590506107d881610bd3565b92915050565b600082601f8301126107ef57600080fd5b81356107ff84826020860161078b565b91505092915050565b60006020828403121561081a57600080fd5b6000610828848285016107c9565b91505092915050565b6000806000806080858703121561084757600080fd5b600085013567ffffffffffffffff81111561086157600080fd5b61086d878288016107de565b945050602085013567ffffffffffffffff81111561088a57600080fd5b610896878288016107de565b935050604085013567ffffffffffffffff8111156108b357600080fd5b6108bf878288016107de565b925050606085013567ffffffffffffffff8111156108dc57600080fd5b6108e8878288016107de565b91505092959194509250565b6108fd81610ad9565b82525050565b600061090e82610ab2565b6109188185610abd565b9350610928818560208601610aff565b61093181610bc2565b840191505092915050565b600061094782610ab2565b6109518185610ace565b9350610961818560208601610aff565b80840191505092915050565b61097681610ae3565b82525050565b6000610988828761093c565b9150610994828661093c565b91506109a0828561093c565b91506109ac828461093c565b915081905095945050505050565b60006020820190506109cf60008301846108f4565b92915050565b600060808201905081810360008301526109ef8187610903565b90508181036020830152610a038186610903565b90508181036040830152610a178185610903565b90508181036060830152610a2b8184610903565b905095945050505050565b6000602082019050610a4b600083018461096d565b92915050565b6000604051905081810181811067ffffffffffffffff82111715610a7857610a77610b93565b5b8060405250919050565b600067ffffffffffffffff821115610a9d57610a9c610b93565b5b601f19601f8301169050602081019050919050565b600081519050919050565b600082825260208201905092915050565b600081905092915050565b6000819050919050565b600060ff82169050919050565b82818337600083830152505050565b60005b83811015610b1d578082015181840152602081019050610b02565b83811115610b2c576000848401525b50505050565b60006002820490506001821680610b4a57607f821691505b60208210811415610b5e57610b5d610b64565b5b50919050565b7f4e487b7100000000000000000000000000000000000000000000000000000000600052602260045260246000fd5b7f4e487b7100000000000000000000000000000000000000000000000000000000600052604160045260246000fd5b6000601f19601f8301169050919050565b610bdc81610ad9565b8114610be757600080fd5b5056fea2646970667358221220cc4634b53be08dfa19f303fdb67f272b600d54b886eae1ca44047f1be72ecbd464736f6c63430008000033",
  "immutableReferences": {},
  "source": "// SPDX-License-Identifier: MIT\r\npragma solidity ^0.8.0;\r\n\r\ncontract DataHashing {\r\n    uint8 a=2;\r\n    struct Data {\r\n        string author;\r\n        string id;\r\n        string date;\r\n        string model;\r\n    }\r\n\r\n    mapping(bytes32 => Data) public hashedData;\r\n    function gett() public view returns (uint8){\r\n        return a; \r\n    }\r\n    function hashAndStoreData(string memory _author, string memory _id, string memory _date, string memory _model) public returns (bytes32) {\r\n        bytes32 hash = keccak256(abi.encodePacked(_author, _id, _date, _model));\r\n        hashedData[hash] = Data(_author, _id, _date, _model);\r\n        return hash;\r\n    }\r\n\r\n    function dehashData(bytes32 _hash) public view returns (string memory author, string memory id, string memory date, string memory model) {\r\n        Data memory data = hashedData[_hash];\r\n        return (data.author, data.id, data.date, data.model);\r\n    }\r\n}",
  "sourcePath": "D:\\Technica\\Pixel Gaurder\\local2\\contracts\\DataHashing.sol",
  "compiler": {
    "name": "solc",
    "version": "0.8.0+commit.c7dfd78e.Emscripten.clang"
  },
  "schemaVersion": "3.4.16",
  "updatedAt": "2024-03-15T16:29:00.668Z",
  "networkType": "ethereum",
  "devdoc": {
    "kind": "dev",
    "methods": {},
    "version": 1
  },
  "userdoc": {
    "kind": "user",
    "methods": {},
    "version": 1
  }
}